{
  "_format": "hh-sol-artifact-1",
  "contractName": "BuyMeACoffee",
  "sourceName": "contracts/BuyMeACoffee.sol",
  "abi": [
    {
      "inputs": [],
      "stateMutability": "nonpayable",
      "type": "constructor"
    },
    {
      "anonymous": false,
      "inputs": [
        {
          "indexed": false,
          "internalType": "address",
          "name": "from",
          "type": "address"
        },
        {
          "indexed": false,
          "internalType": "uint256",
          "name": "timestamp",
          "type": "uint256"
        },
        {
          "indexed": false,
          "internalType": "string",
          "name": "name",
          "type": "string"
        },
        {
          "indexed": false,
          "internalType": "string",
          "name": "message",
          "type": "string"
        }
      ],
      "name": "NewMemo",
      "type": "event"
    },
    {
      "inputs": [
        {
          "internalType": "string",
          "name": "_name",
          "type": "string"
        },
        {
          "internalType": "string",
          "name": "_message",
          "type": "string"
        }
      ],
      "name": "buyCoffee",
      "outputs": [],
      "stateMutability": "payable",
      "type": "function"
    },
    {
      "inputs": [],
      "name": "getMemos",
      "outputs": [
        {
          "components": [
            {
              "internalType": "address",
              "name": "from",
              "type": "address"
            },
            {
              "internalType": "uint256",
              "name": "timestamp",
              "type": "uint256"
            },
            {
              "internalType": "string",
              "name": "name",
              "type": "string"
            },
            {
              "internalType": "string",
              "name": "message",
              "type": "string"
            }
          ],
          "internalType": "struct BuyMeACoffee.Memo[]",
          "name": "",
          "type": "tuple[]"
        }
      ],
      "stateMutability": "view",
      "type": "function"
    },
    {
      "inputs": [],
      "name": "withdrawTips",
      "outputs": [],
      "stateMutability": "nonpayable",
      "type": "function"
    }
  ],
  "bytecode": "0x608060405234801561001057600080fd5b5033600160006101000a81548173ffffffffffffffffffffffffffffffffffffffff021916908373ffffffffffffffffffffffffffffffffffffffff160217905550610ab2806100616000396000f3fe6080604052600436106100345760003560e01c8063204206e1146100395780633aaa74b214610055578063865c51721461006c575b600080fd5b610053600480360381019061004e919061064c565b610097565b005b34801561006157600080fd5b5061006a61020a565b005b34801561007857600080fd5b5061008161026c565b60405161008e91906108d2565b60405180910390f35b600034116100da576040517f08c379a00000000000000000000000000000000000000000000000000000000081526004016100d190610951565b60405180910390fd5b600060405180608001604052803373ffffffffffffffffffffffffffffffffffffffff16815260200142815260200184815260200183815250908060018154018082558091505060019003906000526020600020906004020160009091909190915060008201518160000160006101000a81548173ffffffffffffffffffffffffffffffffffffffff021916908373ffffffffffffffffffffffffffffffffffffffff1602179055506020820151816001015560408201518160020190805190602001906101a992919061044f565b5060608201518160030190805190602001906101c692919061044f565b5050507fc56140e05f516509ae28110e0f72e17558a7561630dad2647c3ae87d986e365c334284846040516101fe94939291906109c8565b60405180910390a15050565b600160009054906101000a900473ffffffffffffffffffffffffffffffffffffffff1673ffffffffffffffffffffffffffffffffffffffff166108fc479081150290604051600060405180830381858888f1935050505061026a57600080fd5b565b60606000805480602002602001604051908101604052809291908181526020016000905b8282101561044657838290600052602060002090600402016040518060800160405290816000820160009054906101000a900473ffffffffffffffffffffffffffffffffffffffff1673ffffffffffffffffffffffffffffffffffffffff1673ffffffffffffffffffffffffffffffffffffffff1681526020016001820154815260200160028201805461032390610a4a565b80601f016020809104026020016040519081016040528092919081815260200182805461034f90610a4a565b801561039c5780601f106103715761010080835404028352916020019161039c565b820191906000526020600020905b81548152906001019060200180831161037f57829003601f168201915b505050505081526020016003820180546103b590610a4a565b80601f01602080910402602001604051908101604052809291908181526020018280546103e190610a4a565b801561042e5780601f106104035761010080835404028352916020019161042e565b820191906000526020600020905b81548152906001019060200180831161041157829003601f168201915b50505050508152505081526020019060010190610290565b50505050905090565b82805461045b90610a4a565b90600052602060002090601f01602090048101928261047d57600085556104c4565b82601f1061049657805160ff19168380011785556104c4565b828001600101855582156104c4579182015b828111156104c35782518255916020019190600101906104a8565b5b5090506104d191906104d5565b5090565b5b808211156104ee5760008160009055506001016104d6565b5090565b6000604051905090565b600080fd5b600080fd5b600080fd5b600080fd5b6000601f19601f8301169050919050565b7f4e487b7100000000000000000000000000000000000000000000000000000000600052604160045260246000fd5b61055982610510565b810181811067ffffffffffffffff8211171561057857610577610521565b5b80604052505050565b600061058b6104f2565b90506105978282610550565b919050565b600067ffffffffffffffff8211156105b7576105b6610521565b5b6105c082610510565b9050602081019050919050565b82818337600083830152505050565b60006105ef6105ea8461059c565b610581565b90508281526020810184848401111561060b5761060a61050b565b5b6106168482856105cd565b509392505050565b600082601f83011261063357610632610506565b5b81356106438482602086016105dc565b91505092915050565b60008060408385031215610663576106626104fc565b5b600083013567ffffffffffffffff81111561068157610680610501565b5b61068d8582860161061e565b925050602083013567ffffffffffffffff8111156106ae576106ad610501565b5b6106ba8582860161061e565b9150509250929050565b600081519050919050565b600082825260208201905092915050565b6000819050602082019050919050565b600073ffffffffffffffffffffffffffffffffffffffff82169050919050565b600061071b826106f0565b9050919050565b61072b81610710565b82525050565b6000819050919050565b61074481610731565b82525050565b600081519050919050565b600082825260208201905092915050565b60005b83811015610784578082015181840152602081019050610769565b83811115610793576000848401525b50505050565b60006107a48261074a565b6107ae8185610755565b93506107be818560208601610766565b6107c781610510565b840191505092915050565b60006080830160008301516107ea6000860182610722565b5060208301516107fd602086018261073b565b50604083015184820360408601526108158282610799565b9150506060830151848203606086015261082f8282610799565b9150508091505092915050565b600061084883836107d2565b905092915050565b6000602082019050919050565b6000610868826106c4565b61087281856106cf565b935083602082028501610884856106e0565b8060005b858110156108c057848403895281516108a1858261083c565b94506108ac83610850565b925060208a01995050600181019050610888565b50829750879550505050505092915050565b600060208201905081810360008301526108ec818461085d565b905092915050565b600082825260208201905092915050565b7f43616e27742062757920636f6666656520776974682030455448000000000000600082015250565b600061093b601a836108f4565b915061094682610905565b602082019050919050565b6000602082019050818103600083015261096a8161092e565b9050919050565b61097a81610710565b82525050565b61098981610731565b82525050565b600061099a8261074a565b6109a481856108f4565b93506109b4818560208601610766565b6109bd81610510565b840191505092915050565b60006080820190506109dd6000830187610971565b6109ea6020830186610980565b81810360408301526109fc818561098f565b90508181036060830152610a10818461098f565b905095945050505050565b7f4e487b7100000000000000000000000000000000000000000000000000000000600052602260045260246000fd5b60006002820490506001821680610a6257607f821691505b60208210811415610a7657610a75610a1b565b5b5091905056fea2646970667358221220efe4e5ca5b49ec132c367845068a5c9ac1823ccc40b48efa01cea1eb1ac7068e64736f6c63430008090033",
  "linkReferences": {},
  "deployedLinkReferences": {}
}